:100000000C942A000C943F000C943F000C943F0089
:100010000C943F000C943F000C943F000C943F0064
:100020000C943F000C943F000C943F000C943F0054
:100030000C943F000C943F000C943F000C943F0044
:100040000C943F000C943F000C943F000C943F0034
:100050000C943F0011241FBECFE5D8E0DEBFCDBF1A
:1000600010E0A0E6B0E0E8EBFBE002C005900D92E6
:10007000A836B107D9F70E9441000C94DA050C9418
:100080000000CF93DF93CDB7DEB767970FB6F89434
:10009000DEBF0FBECDBF0E94FE0088E0E0E6F0E0CC
:1000A000DE01509601900D928A95E1F7198284C085
:1000B0008981882F90E09E01205F3F4F820F931F20
:1000C000FC01808141E0682F80E00E941D0280E0F9
:1000D00090E0AAEFB3E48A839B83AC83BD8320E0E6
:1000E00030E04AEF54E46A817B818C819D810E94DB
:1000F0004505DC01CB018E839F83A887B98720E06B
:1001000030E040E85FE36E817F81888599850E94B9
:10011000BF0488232CF481E090E09B878A873FC04E
:1001200020E03FEF4FE757E46E817F818885998516
:100130000E94400518164CF520E030E040E251E402
:100140006A817B818C819D810E944505DC01CB0108
:10015000BC01CD010E94C404DC01CB019B878A87CE
:100160000FC088EC90E09D878C878C859D850197DA
:10017000F1F79D878C878A859B8501979B878A8766
:100180008A859B85892B69F714C06E817F8188855C
:1001900099850E94C404DC01CB019B878A878A85EC
:1001A0009B859F878E878E859F850197F1F79F8717
:1001B0008E8789818F5F89838981883008F478CF21
:1001C00060E080E00E942D0471CFCF93DF93CDB724
:1001D000DEB78BE390E02FEFFC01208388E390E013
:1001E000FC01108285E390E0FC01108282E390E044
:1001F000FC0110820000DF91CF910895CF93DF932F
:10020000CDB7DEB78AE390E02FEFFC01208387E3D0
:1002100090E0FC01108284E390E0FC01108281E315
:1002200090E0FC0110820000DF91CF910895CF9300
:10023000DF9300D000D0CDB7DEB78A836B834C83C9
:1002400081E089838A81843008F0EEC08B81883018
:1002500008F0EAC08C81823008F0E6C08A81882FDD
:1002600090E08130910509F442C0823091051CF480
:10027000892B49F0DAC08230910509F46CC00397EC
:1002800009F49DC0D2C08C81882F90E00097C1F006
:10029000019709F0C8C08AE390E02AE330E0F90151
:1002A0002081622F2B81422F50E021E030E002C0FC
:1002B000220F331F4A95E2F7262BFC01208316C03C
:1002C0008AE390E02AE330E0F9012081622F2B815C
:1002D000422F50E021E030E002C0220F331F4A9548
:1002E000E2F720952623FC01208300009CC08C812E
:1002F000882F90E00097C1F0019709F094C087E340
:1003000090E027E330E0F9012081622F2B81422F1A
:1003100050E021E030E002C0220F331F4A95E2F79F
:10032000262BFC01208316C087E390E027E330E012
:10033000F9012081622F2B81422F50E021E030E033
:1003400002C0220F331F4A95E2F720952623FC01B5
:100350002083000068C08C81882F90E00097C1F056
:10036000019709F060C084E390E024E330E0F901F4
:100370002081622F2B81422F50E021E030E002C02B
:10038000220F331F4A95E2F7262BFC01208316C06B
:1003900084E390E024E330E0F9012081622F2B8197
:1003A000422F50E021E030E002C0220F331F4A9577
:1003B000E2F720952623FC012083000034C08C81C5
:1003C000882F90E00097C1F0019709F02BC081E3DE
:1003D00090E021E330E0F9012081622F2B81422F50
:1003E00050E021E030E002C0220F331F4A95E2F7CF
:1003F000262BFC01208316C081E390E021E330E04E
:10040000F9012081622F2B81422F50E021E030E062
:1004100002C0220F331F4A95E2F720952623FC01E4
:1004200020830000000001C0198289810F900F9085
:100430000F900F90DF91CF910895CF93DF9300D06D
:1004400000D0CDB7DEB78A836B834C8381E089838C
:100450008A81843008F0EEC08B81883008F0EAC0D1
:100460008C81823008F0E6C08A81882F90E081304C
:10047000910509F442C0823091051CF4892B49F0A2
:10048000DAC08230910509F46CC0039709F49DC06D
:10049000D2C08C81882F90E00097C1F0019709F0BD
:1004A000C8C08BE390E02BE330E0F9012081622F9C
:1004B0002B81422F50E021E030E002C0220F331F99
:1004C0004A95E2F7262BFC01208316C08BE390E0CF
:1004D0002BE330E0F9012081622F2B81422F50E085
:1004E00021E030E002C0220F331F4A95E2F7209549
:1004F0002623FC01208300009CC08C81882F90E083
:100500000097C1F0019709F094C088E390E028E3D8
:1005100030E0F9012081622F2B81422F50E021E051
:1005200030E002C0220F331F4A95E2F7262BFC0170
:10053000208316C088E390E028E330E0F9012081B1
:10054000622F2B81422F50E021E030E002C0220FC9
:10055000331F4A95E2F720952623FC0120830000F3
:1005600068C08C81882F90E00097C1F0019709F056
:1005700060C085E390E025E330E0F9012081622F3F
:100580002B81422F50E021E030E002C0220F331FC8
:100590004A95E2F7262BFC01208316C085E390E004
:1005A00025E330E0F9012081622F2B81422F50E0BA
:1005B00021E030E002C0220F331F4A95E2F7209578
:1005C0002623FC012083000034C08C81882F90E01A
:1005D0000097C1F0019709F02BC082E390E022E37D
:1005E00030E0F9012081622F2B81422F50E021E081
:1005F00030E002C0220F331F4A95E2F7262BFC01A0
:10060000208316C082E390E022E330E0F9012081EC
:10061000622F2B81422F50E021E030E002C0220FF8
:10062000331F4A95E2F720952623FC012083000022
:10063000000001C0198289810F900F900F900F90D8
:10064000DF91CF910895CF93DF9300D000D01F9218
:10065000CDB7DEB78A836B835D834C8381E089836A
:100660008A81843008F071C08B81883008F06DC0B9
:100670008C819D81892B09F468C08A81882F90E044
:100680008130910511F1823091051CF4892B41F0E4
:100690005DC08230910571F1039709F440C056C0E6
:1006A00089E390E0FC018081882F90E02B81222F4C
:1006B00030E002C0959587952A95E2F7282F2170A2
:1006C0008C819D81FC0120833FC086E390E0FC018A
:1006D0008081882F90E02B81222F30E002C09595F9
:1006E00087952A95E2F7282F21708C819D81FC0146
:1006F00020832AC083E390E0FC018081882F90E072
:100700002B81222F30E002C0959587952A95E2F73C
:10071000282F21708C819D81FC01208315C080E3EE
:1007200090E0FC018081882F90E02B81222F30E027
:1007300002C0959587952A95E2F7282F21708C8124
:100740009D81FC012083000001C0198289810F90E6
:100750000F900F900F900F90DF91CF910895CF934E
:10076000DF9300D01F92CDB7DEB78A836B8381E021
:1007700089838A81843008F068C08A81882F90E05C
:100780008130910511F1823091051CF4892B41F0E3
:100790005DC08230910571F1039709F440C056C0E5
:1007A0008B81882F90E0009751F08F3F910509F0E1
:1007B0004DC08AE390E02FEFFC01208305C08AE35F
:1007C00090E0FC011082000041C08B81882F90E0F6
:1007D000009751F08F3F910509F038C087E390E012
:1007E0002FEFFC01208305C087E390E0FC0110821D
:1007F00000002CC08B81882F90E0009751F08F3F34
:10080000910509F023C084E390E02FEFFC012083E1
:1008100005C084E390E0FC011082000017C08B81CA
:10082000882F90E0009751F08F3F910509F00EC09E
:1008300081E390E02FEFFC01208305C081E390E08D
:10084000FC0110820000000001C0198289810F9014
:100850000F900F90DF91CF910895CF93DF9300D049
:100860001F92CDB7DEB78A836B8381E089838A814B
:10087000843058F58A81882F90E08130910591F07D
:10088000823091051CF4892B39F020C0823091050B
:1008900079F0039799F01AC08BE390E02B81FC016B
:1008A000208314C088E390E02B81FC0120830EC0DC
:1008B00085E390E02B81FC01208308C082E390E077
:1008C0002B81FC012083000001C0198289810F90D7
:1008D0000F900F90DF91CF910895CF93DF9300D0C9
:1008E00000D0CDB7DEB78A837C836B8381E08983B8
:1008F0008A818430D8F58B819C81892BB9F18A81DA
:10090000882F90E081309105A9F0823091051CF488
:10091000892B39F02CC082309105A9F00397E1F0C2
:1009200026C089E390E0FC0120818B819C81FC0141
:1009300020831BC086E390E0FC0120818B819C8199
:10094000FC01208312C083E390E0FC0120818B81B5
:100950009C81FC01208309C080E390E0FC012081A0
:100960008B819C81FC012083000001C01982898158
:100970000F900F900F900F90DF91CF9108950E94EC
:10098000F30408F481E008950E941F0588F09F5742
:1009900098F0B92F9927B751B0F0E1F0660F771FA3
:1009A000881F991F1AF0BA95C9F714C0B13091F099
:1009B0000E943905B1E008950C943905672F782F0E
:1009C0008827B85F39F0B93FCCF38695779567955E
:1009D000B395D9F73EF490958095709561957F4FCA
:1009E0008F4F9F4F0895990F0008550FAA0BE0E80D
:1009F000FEEF16161706E807F907C0F012161306E1
:100A0000E407F50798F0621B730B840B950B39F420
:100A10000A2661F0232B242B252B21F408950A2686
:100A200009F4A140A6958FEF811D811D089557FD02
:100A30009058440F551F59F05F3F71F04795880F4C
:100A400097FB991F61F09F3F79F0879508951216E3
:100A500013061406551FF2CF4695F1DF08C016168F
:100A600017061806991FF1CF869571056105089440
:100A70000895E894BB2766277727CB0197F9089557
:100A80000E94F30408F48FEF08950E9458050C9417
:100A9000C9050E94BB0538F00E94C20520F09523CD
:100AA00011F00C94B2050C94B80511240C943A057D
:100AB0000E94170570F3959FC1F3950F50E0551FE5
:100AC000629FF001729FBB27F00DB11D639FAA27A3
:100AD000F00DB11DAA1F649F6627B00DA11D661FF2
:100AE000829F2227B00DA11D621F739FB00DA11D13
:100AF000621F839FA00D611D221F749F3327A00DCD
:100B0000611D231F849F600D211D822F762F6A2F68
:100B100011249F5750409AF0F1F088234AF0EE0FCD
:100B2000FF1FBB1F661F771F881F91505040A9F7FA
:100B30009E3F510580F00C94B2050C943A055F3F3E
:100B4000E4F3983ED4F3869577956795B795F79536
:100B5000E7959F5FC1F7FE2B880F911D96958795AE
:100B600097F9089597F99F6780E870E060E008952D
:100B70009FEF80EC089500240A94161617061806B5
:100B80000906089500240A94121613061406050691
:100B90000895092E0394000C11F4882352F0BB0F22
:100BA00040F4BF2B11F460FF04C06F5F7F4F8F4F85
:080BB0009F4F0895F894FFCF58
:080BB800000102030405060719
:00000001FF
